{"abi":[{"type":"function","name":"VERIFIER_HASH","inputs":[],"outputs":[{"name":"","type":"bytes32","internalType":"bytes32"}],"stateMutability":"pure"},{"type":"function","name":"VERSION","inputs":[],"outputs":[{"name":"","type":"string","internalType":"string"}],"stateMutability":"pure"},{"type":"function","name":"Verify","inputs":[{"name":"proof","type":"uint256[8]","internalType":"uint256[8]"},{"name":"input","type":"uint256[2]","internalType":"uint256[2]"}],"outputs":[],"stateMutability":"view"},{"type":"function","name":"compressProof","inputs":[{"name":"proof","type":"uint256[8]","internalType":"uint256[8]"}],"outputs":[{"name":"compressed","type":"uint256[4]","internalType":"uint256[4]"}],"stateMutability":"view"},{"type":"function","name":"hashPublicValues","inputs":[{"name":"publicValues","type":"bytes","internalType":"bytes"}],"outputs":[{"name":"","type":"bytes32","internalType":"bytes32"}],"stateMutability":"pure"},{"type":"function","name":"verifyCompressedProof","inputs":[{"name":"compressedProof","type":"uint256[4]","internalType":"uint256[4]"},{"name":"input","type":"uint256[2]","internalType":"uint256[2]"}],"outputs":[],"stateMutability":"view"},{"type":"function","name":"verifyProof","inputs":[{"name":"programVKey","type":"bytes32","internalType":"bytes32"},{"name":"publicValues","type":"bytes","internalType":"bytes"},{"name":"proofBytes","type":"bytes","internalType":"bytes"}],"outputs":[],"stateMutability":"view"},{"type":"error","name":"InvalidProof","inputs":[]},{"type":"error","name":"ProofInvalid","inputs":[]},{"type":"error","name":"PublicInputNotInField","inputs":[]},{"type":"error","name":"WrongVerifierSelector","inputs":[{"name":"received","type":"bytes4","internalType":"bytes4"},{"name":"expected","type":"bytes4","internalType":"bytes4"}]}],"bytecode":{"object":"0x6080604052348015600e575f5ffd5b50612b6e8061001c5f395ff3fe608060405234801561000f575f5ffd5b506004361061007b575f3560e01c80636b61d8e7116100595780636b61d8e7146100e9578063eddf243c14610119578063f11817b214610135578063ffa1ad74146101515761007b565b80632a5104361461007f57806341493c601461009d57806344f63692146100b9575b5f5ffd5b61008761016f565b604051610094919061223c565b60405180910390f35b6100b760048036038101906100b291906122f1565b610198565b005b6100d360048036038101906100ce91906123a3565b610332565b6040516100e0919061247d565b60405180910390f35b61010360048036038101906100fe9190612496565b610491565b604051610110919061223c565b60405180910390f35b610133600480360381019061012e9190612502565b61050e565b005b61014f600480360381019061014a9190612563565b6107a8565b005b610159610d63565b6040516101669190612611565b60405180910390f35b5f7fa4594c59bbc142f3b81c3ecb7f50a7c34bc9af7c4c444b5d48b795427e2859135f1b905090565b5f82825f906004926101ac93929190612639565b906101b791906126b4565b90505f6101c261016f565b9050807bffffffffffffffffffffffffffffffffffffffffffffffffffffffff1916827bffffffffffffffffffffffffffffffffffffffffffffffffffffffff1916146102485781816040517f988066a100000000000000000000000000000000000000000000000000000000815260040161023f929190612721565b60405180910390fd5b5f6102538787610491565b905061025d61219b565b885f1c815f6002811061027357610272612748565b5b602002018181525050815f1c8160016002811061029357610292612748565b5b6020020181815250505f868660049080926102b093929190612639565b8101906102bd91906128c5565b90503073ffffffffffffffffffffffffffffffffffffffff1663eddf243c82846040518363ffffffff1660e01b81526004016102fa9291906129ef565b5f6040518083038186803b158015610310575f5ffd5b505afa158015610322573d5f5f3e3d5ffd5b5050505050505050505050505050565b61033a6121bd565b610373825f600881106103505761034f612748565b5b60200201358360016008811061036957610368612748565b5b6020020135610da0565b815f6004811061038657610385612748565b5b6020020181815250506103fb826003600881106103a6576103a5612748565b5b6020020135836002600881106103bf576103be612748565b5b6020020135846005600881106103d8576103d7612748565b5b6020020135856004600881106103f1576103f0612748565b5b6020020135610f4e565b8260026004811061040f5761040e612748565b5b602002018360016004811061042757610426612748565b5b602002018281525082815250505061046f8260066008811061044c5761044b612748565b5b60200201358360076008811061046557610464612748565b5b6020020135610da0565b8160036004811061048357610482612748565b5b602002018181525050919050565b5f7f1fffffffffffffffffffffffffffffffffffffffffffffffffffffffffffffff5f1b600284846040516104c7929190612a54565b602060405180830381855afa1580156104e2573d5f5f3e3d5ffd5b5050506040513d601f19601f820116820180604052508101906105059190612a80565b16905092915050565b5f5f6105198361151a565b915091505f6040516101008682377f1cc7cb8de715675f21f01ecc9b46d236e0865e0cc020024521998269845f74e66101008201527f03ff41f4ba0c37fe2caf27354d28e4b8f83d3b76777a63b327d736bffb0122ed6101208201527f01909cd7827e0278e6b60843a4abc7b111d7f8b2725cd5902a6b20da7a2938fb6101408201527f192bd3274441670227b4f69a44005b8711266e474227c6439ca25ca8e1ec1fc26101608201527f2d4d9aa7e302d9df41749d5507949d05dbea33fbb16c643b22f599a2be6df2e26101808201527f14bedd503c37ceb061d8ec60209fe345ce89830a19230301f076caff004d19266101a08201527f0967032fcbf776d1afc985f88877f182d38480a653f2decaa9794cbc3bf3060c6101c08201527f0e187847ad4c798374d0d6732bf501847dd68bc0e071241e0213bc7fc13db7ab6101e08201527e1752a100a72fdf1e5a5d6ea841cc20ec838bccfcf7bd559e79f1c9c759b6a06102008201527f192a8cc13cd9f762871f21e43451c6ca9eeab2cb2987c4e366a185c25dac2e7f61022082015283610240820152826102608201527f198e9393920d483a7260bfb731fb5d25f1aa493335a9e71297e485b7aef312c26102808201527f1800deef121f1e76426a00665e5c4479674322d4f75edadd46debd5cd992f6ed6102a08201527f275dc4a288d1afb3cbb1ac09187524c7db36395df7be3b99e673b13a075a65ec6102c08201527f1d9befcd05a5323e6da4d435f3b617cdb3af83285c2df711ef39c01571827f9d6102e08201526020816103008360085afa915080518216915050806107a1576040517f7fcdd1f400000000000000000000000000000000000000000000000000000000815260040160405180910390fd5b5050505050565b6107b06121df565b5f5f6107d2855f600481106107c8576107c7612748565b5b60200201356116eb565b915091505f5f5f5f610814896002600481106107f1576107f0612748565b5b60200201358a60016004811061080a57610809612748565b5b6020020135611820565b93509350935093505f5f61083f8b60036004811061083557610834612748565b5b60200201356116eb565b915091505f5f61084e8c61151a565b91509150898b5f6018811061086657610865612748565b5b602002018181525050888b60016018811061088457610883612748565b5b602002018181525050868b6002601881106108a2576108a1612748565b5b602002018181525050878b6003601881106108c0576108bf612748565b5b602002018181525050848b6004601881106108de576108dd612748565b5b602002018181525050858b6005601881106108fc576108fb612748565b5b602002018181525050838b60066018811061091a57610919612748565b5b602002018181525050828b60076018811061093857610937612748565b5b6020020181815250507f1cc7cb8de715675f21f01ecc9b46d236e0865e0cc020024521998269845f74e68b60086018811061097657610975612748565b5b6020020181815250507f03ff41f4ba0c37fe2caf27354d28e4b8f83d3b76777a63b327d736bffb0122ed8b6009601881106109b4576109b3612748565b5b6020020181815250507f01909cd7827e0278e6b60843a4abc7b111d7f8b2725cd5902a6b20da7a2938fb8b600a601881106109f2576109f1612748565b5b6020020181815250507f192bd3274441670227b4f69a44005b8711266e474227c6439ca25ca8e1ec1fc28b600b60188110610a3057610a2f612748565b5b6020020181815250507f2d4d9aa7e302d9df41749d5507949d05dbea33fbb16c643b22f599a2be6df2e28b600c60188110610a6e57610a6d612748565b5b6020020181815250507f14bedd503c37ceb061d8ec60209fe345ce89830a19230301f076caff004d19268b600d60188110610aac57610aab612748565b5b6020020181815250507f0967032fcbf776d1afc985f88877f182d38480a653f2decaa9794cbc3bf3060c8b600e60188110610aea57610ae9612748565b5b6020020181815250507f0e187847ad4c798374d0d6732bf501847dd68bc0e071241e0213bc7fc13db7ab8b600f60188110610b2857610b27612748565b5b6020020181815250507e1752a100a72fdf1e5a5d6ea841cc20ec838bccfcf7bd559e79f1c9c759b6a08b601060188110610b6557610b64612748565b5b6020020181815250507f192a8cc13cd9f762871f21e43451c6ca9eeab2cb2987c4e366a185c25dac2e7f8b601160188110610ba357610ba2612748565b5b602002018181525050818b601260188110610bc157610bc0612748565b5b602002018181525050808b601360188110610bdf57610bde612748565b5b6020020181815250507f198e9393920d483a7260bfb731fb5d25f1aa493335a9e71297e485b7aef312c28b601460188110610c1d57610c1c612748565b5b6020020181815250507f1800deef121f1e76426a00665e5c4479674322d4f75edadd46debd5cd992f6ed8b601560188110610c5b57610c5a612748565b5b6020020181815250507f275dc4a288d1afb3cbb1ac09187524c7db36395df7be3b99e673b13a075a65ec8b601660188110610c9957610c98612748565b5b6020020181815250507f1d9befcd05a5323e6da4d435f3b617cdb3af83285c2df711ef39c01571827f9d8b601760188110610cd757610cd6612748565b5b6020020181815250505f610ce9612202565b6020816103008f60085afa9150811580610d1b57506001815f60018110610d1357610d12612748565b5b602002015114155b15610d52576040517f7fcdd1f400000000000000000000000000000000000000000000000000000000815260040160405180910390fd5b505050505050505050505050505050565b60606040518060400160405280600681526020017f76352e302e300000000000000000000000000000000000000000000000000000815250905090565b5f7f30644e72e131a029b85045b68181585d97816a916871ca8d3c208c16d87cfd4783101580610df057507f30644e72e131a029b85045b68181585d97816a916871ca8d3c208c16d87cfd478210155b15610e27576040517f7fcdd1f400000000000000000000000000000000000000000000000000000000815260040160405180910390fd5b5f83148015610e3557505f82145b15610e42575f9050610f48565b5f610ee07f30644e72e131a029b85045b68181585d97816a916871ca8d3c208c16d87cfd4780610e7557610e74612aab565b5b60037f30644e72e131a029b85045b68181585d97816a916871ca8d3c208c16d87cfd4780610ea657610ea5612aab565b5b877f30644e72e131a029b85045b68181585d97816a916871ca8d3c208c16d87cfd4780610ed657610ed5612aab565b5b898a090908611bfb565b9050808303610ef8575f600185901b17915050610f48565b610f0181611c97565b8303610f165760018085901b17915050610f48565b6040517f7fcdd1f400000000000000000000000000000000000000000000000000000000815260040160405180910390fd5b92915050565b5f5f7f30644e72e131a029b85045b68181585d97816a916871ca8d3c208c16d87cfd4786101580610f9f57507f30644e72e131a029b85045b68181585d97816a916871ca8d3c208c16d87cfd478510155b80610fca57507f30644e72e131a029b85045b68181585d97816a916871ca8d3c208c16d87cfd478410155b80610ff557507f30644e72e131a029b85045b68181585d97816a916871ca8d3c208c16d87cfd478310155b1561102c576040517f7fcdd1f400000000000000000000000000000000000000000000000000000000815260040160405180910390fd5b5f8385878917171703611044575f5f91509150611511565b5f5f5f7f30644e72e131a029b85045b68181585d97816a916871ca8d3c208c16d87cfd478061107657611075612aab565b5b60037f30644e72e131a029b85045b68181585d97816a916871ca8d3c208c16d87cfd476110a39190612b05565b7f30644e72e131a029b85045b68181585d97816a916871ca8d3c208c16d87cfd47806110d2576110d1612aab565b5b8a8c090990505f7f30644e72e131a029b85045b68181585d97816a916871ca8d3c208c16d87cfd478061110857611107612aab565b5b8a7f30644e72e131a029b85045b68181585d97816a916871ca8d3c208c16d87cfd478061113857611137612aab565b5b8c8d090990505f7f30644e72e131a029b85045b68181585d97816a916871ca8d3c208c16d87cfd478061116e5761116d612aab565b5b8a7f30644e72e131a029b85045b68181585d97816a916871ca8d3c208c16d87cfd478061119e5761119d612aab565b5b8c8d090990507f30644e72e131a029b85045b68181585d97816a916871ca8d3c208c16d87cfd47806111d3576111d2612aab565b5b7f30644e72e131a029b85045b68181585d97816a916871ca8d3c208c16d87cfd478061120257611201612aab565b5b7f30644e72e131a029b85045b68181585d97816a916871ca8d3c208c16d87cfd478061123157611230612aab565b5b8c860984087f2b149d40ceb8aaae81be18991be06ac3b5b4c5e559dbefa33267e6dc24a138e50894506113167f30644e72e131a029b85045b68181585d97816a916871ca8d3c208c16d87cfd478061128c5761128b612aab565b5b7f30644e72e131a029b85045b68181585d97816a916871ca8d3c208c16d87cfd47806112bb576112ba612aab565b5b7f30644e72e131a029b85045b68181585d97816a916871ca8d3c208c16d87cfd47806112ea576112e9612aab565b5b8e870984087f2fcd3ac2a640a154eb23960892a85a68f031ca0c8344b23a577dcf1052b9e77508611c97565b93505050505f5f6113b97f30644e72e131a029b85045b68181585d97816a916871ca8d3c208c16d87cfd478061134f5761134e612aab565b5b7f30644e72e131a029b85045b68181585d97816a916871ca8d3c208c16d87cfd478061137e5761137d612aab565b5b8586097f30644e72e131a029b85045b68181585d97816a916871ca8d3c208c16d87cfd47806113b0576113af612aab565b5b87880908611bfb565b90506114467f30644e72e131a029b85045b68181585d97816a916871ca8d3c208c16d87cfd47806113ed576113ec612aab565b5b7f183227397098d014dc2822db40c0ac2ecbc0b548b438e5469e10460b6c3e7ea47f30644e72e131a029b85045b68181585d97816a916871ca8d3c208c16d87cfd478061143d5761143c612aab565b5b84880809611d02565b15915050611455838383611d6c565b8093508194505050828714801561146b57508186145b15611493575f8161147c575f61147f565b60025b60ff1660028b901b1717945087935061150d565b61149c83611c97565b871480156114b157506114ae82611c97565b86145b156114da576001816114c3575f6114c6565b60025b60ff1660028b901b1717945087935061150c565b6040517f7fcdd1f400000000000000000000000000000000000000000000000000000000815260040160405180910390fd5b5b5050505b94509492505050565b5f5f5f60019050604051604081015f7f26091e1cafb0ad8a4ea0a694cd3743ebf524779233db734c451d28b58aa9758e83527e9ff50a6b8b11c3ca6fdb2690a124f8ce25489fefa65a3e782e7ba70b66690e60208401527f061c3fd0fd3da25d2607c227d090cca750ed36c6ec878755e537c1c48951fb4c82527f0fa17ae9c2033379df7b5c65eff0e107055e9a273e6119a212dd09eb517072196020830152863590508060408301527f30644e72e131a029b85045b68181585d2833e84879b9709143e1f593f000000181108416935060408260608460075afa8416935060408360808560065afa841693507f04eab241388a79817fe0e0e2ead0b2ec4ffdec51a16028dee020634fd129e71c82527f07236256d21c60d02f0bdbf95cff83e03ea9e16fca56b18d5544b0889a65c1f56020830152602087013590508060408301527f30644e72e131a029b85045b68181585d2833e84879b9709143e1f593f000000181108416935060408260608460075afa8416935060408360808560065afa841693508251955060208301519450505050806116e5576040517fa54f8e2700000000000000000000000000000000000000000000000000000000815260040160405180910390fd5b50915091565b5f5f5f83036116ff575f5f9150915061181b565b5f6001808516149050600184901c92507f30644e72e131a029b85045b68181585d97816a916871ca8d3c208c16d87cfd478310611768576040517f7fcdd1f400000000000000000000000000000000000000000000000000000000815260040160405180910390fd5b6118057f30644e72e131a029b85045b68181585d97816a916871ca8d3c208c16d87cfd478061179a57611799612aab565b5b60037f30644e72e131a029b85045b68181585d97816a916871ca8d3c208c16d87cfd47806117cb576117ca612aab565b5b867f30644e72e131a029b85045b68181585d97816a916871ca8d3c208c16d87cfd47806117fb576117fa612aab565b5b8889090908611bfb565b915080156118195761181682611c97565b91505b505b915091565b5f5f5f5f5f8614801561183257505f85145b15611848575f5f5f5f9350935093509350611bf2565b5f60018088161490505f6002808916149050600288901c95508694507f30644e72e131a029b85045b68181585d97816a916871ca8d3c208c16d87cfd47861015806118b357507f30644e72e131a029b85045b68181585d97816a916871ca8d3c208c16d87cfd478510155b156118ea576040517f7fcdd1f400000000000000000000000000000000000000000000000000000000815260040160405180910390fd5b5f7f30644e72e131a029b85045b68181585d97816a916871ca8d3c208c16d87cfd478061191a57611919612aab565b5b60037f30644e72e131a029b85045b68181585d97816a916871ca8d3c208c16d87cfd476119479190612b05565b7f30644e72e131a029b85045b68181585d97816a916871ca8d3c208c16d87cfd478061197657611975612aab565b5b888a090990505f7f30644e72e131a029b85045b68181585d97816a916871ca8d3c208c16d87cfd47806119ac576119ab612aab565b5b887f30644e72e131a029b85045b68181585d97816a916871ca8d3c208c16d87cfd47806119dc576119db612aab565b5b8a8b090990505f7f30644e72e131a029b85045b68181585d97816a916871ca8d3c208c16d87cfd4780611a1257611a11612aab565b5b887f30644e72e131a029b85045b68181585d97816a916871ca8d3c208c16d87cfd4780611a4257611a41612aab565b5b8a8b090990507f30644e72e131a029b85045b68181585d97816a916871ca8d3c208c16d87cfd4780611a7757611a76612aab565b5b7f30644e72e131a029b85045b68181585d97816a916871ca8d3c208c16d87cfd4780611aa657611aa5612aab565b5b7f30644e72e131a029b85045b68181585d97816a916871ca8d3c208c16d87cfd4780611ad557611ad4612aab565b5b8a860984087f2b149d40ceb8aaae81be18991be06ac3b5b4c5e559dbefa33267e6dc24a138e5089650611bba7f30644e72e131a029b85045b68181585d97816a916871ca8d3c208c16d87cfd4780611b3057611b2f612aab565b5b7f30644e72e131a029b85045b68181585d97816a916871ca8d3c208c16d87cfd4780611b5f57611b5e612aab565b5b7f30644e72e131a029b85045b68181585d97816a916871ca8d3c208c16d87cfd4780611b8e57611b8d612aab565b5b8c870984087f2fcd3ac2a640a154eb23960892a85a68f031ca0c8344b23a577dcf1052b9e77508611c97565b9550611bc7878786611d6c565b80975081985050508415611bec57611bde87611c97565b9650611be986611c97565b95505b50505050505b92959194509250565b5f611c26827f0c19139cb84c680a6e14116da060561765e05aa45a1c72a34f082305b61f3f52612067565b9050817f30644e72e131a029b85045b68181585d97816a916871ca8d3c208c16d87cfd4780611c5857611c57612aab565b5b82830914611c92576040517f7fcdd1f400000000000000000000000000000000000000000000000000000000815260040160405180910390fd5b919050565b5f7f30644e72e131a029b85045b68181585d97816a916871ca8d3c208c16d87cfd47808381611cc957611cc8612aab565b5b067f30644e72e131a029b85045b68181585d97816a916871ca8d3c208c16d87cfd470381611cfa57611cf9612aab565b5b069050919050565b5f5f611d2e837f0c19139cb84c680a6e14116da060561765e05aa45a1c72a34f082305b61f3f52612067565b9050827f30644e72e131a029b85045b68181585d97816a916871ca8d3c208c16d87cfd4780611d6057611d5f612aab565b5b82830914915050919050565b5f5f5f611e0b7f30644e72e131a029b85045b68181585d97816a916871ca8d3c208c16d87cfd4780611da157611da0612aab565b5b7f30644e72e131a029b85045b68181585d97816a916871ca8d3c208c16d87cfd4780611dd057611dcf612aab565b5b8788097f30644e72e131a029b85045b68181585d97816a916871ca8d3c208c16d87cfd4780611e0257611e01612aab565b5b898a0908611bfb565b90508315611e1f57611e1c81611c97565b90505b611eaa7f30644e72e131a029b85045b68181585d97816a916871ca8d3c208c16d87cfd4780611e5157611e50612aab565b5b7f183227397098d014dc2822db40c0ac2ecbc0b548b438e5469e10460b6c3e7ea47f30644e72e131a029b85045b68181585d97816a916871ca8d3c208c16d87cfd4780611ea157611ea0612aab565b5b848a0809611bfb565b92507f30644e72e131a029b85045b68181585d97816a916871ca8d3c208c16d87cfd4780611edb57611eda612aab565b5b611f167f30644e72e131a029b85045b68181585d97816a916871ca8d3c208c16d87cfd4780611f0d57611f0c612aab565b5b600286096120fe565b860991507f30644e72e131a029b85045b68181585d97816a916871ca8d3c208c16d87cfd4780611f4957611f48612aab565b5b611f837f30644e72e131a029b85045b68181585d97816a916871ca8d3c208c16d87cfd4780611f7b57611f7a612aab565b5b848509611c97565b7f30644e72e131a029b85045b68181585d97816a916871ca8d3c208c16d87cfd4780611fb257611fb1612aab565b5b858609088614158061202757507f30644e72e131a029b85045b68181585d97816a916871ca8d3c208c16d87cfd4780611fee57611fed612aab565b5b7f30644e72e131a029b85045b68181585d97816a916871ca8d3c208c16d87cfd478061201d5761201c612aab565b5b8385096002098514155b1561205e576040517f7fcdd1f400000000000000000000000000000000000000000000000000000000815260040160405180910390fd5b50935093915050565b5f5f60405160208152602080820152602060408201528460608201528360808201527f30644e72e131a029b85045b68181585d97816a916871ca8d3c208c16d87cfd4760a082015260208160c08360055afa91508051925050806120f7576040517f7fcdd1f400000000000000000000000000000000000000000000000000000000815260040160405180910390fd5b5092915050565b5f612129827f30644e72e131a029b85045b68181585d97816a916871ca8d3c208c16d87cfd45612067565b905060017f30644e72e131a029b85045b68181585d97816a916871ca8d3c208c16d87cfd478061215c5761215b612aab565b5b82840914612196576040517f7fcdd1f400000000000000000000000000000000000000000000000000000000815260040160405180910390fd5b919050565b6040518060400160405280600290602082028036833780820191505090505090565b6040518060800160405280600490602082028036833780820191505090505090565b604051806103000160405280601890602082028036833780820191505090505090565b6040518060200160405280600190602082028036833780820191505090505090565b5f819050919050565b61223681612224565b82525050565b5f60208201905061224f5f83018461222d565b92915050565b5f604051905090565b5f5ffd5b5f5ffd5b61226f81612224565b8114612279575f5ffd5b50565b5f8135905061228a81612266565b92915050565b5f5ffd5b5f5ffd5b5f5ffd5b5f5f83601f8401126122b1576122b0612290565b5b8235905067ffffffffffffffff8111156122ce576122cd612294565b5b6020830191508360018202830111156122ea576122e9612298565b5b9250929050565b5f5f5f5f5f6060868803121561230a5761230961225e565b5b5f6123178882890161227c565b955050602086013567ffffffffffffffff81111561233857612337612262565b5b6123448882890161229c565b9450945050604086013567ffffffffffffffff81111561236757612366612262565b5b6123738882890161229c565b92509250509295509295909350565b5f8190508260206008028201111561239d5761239c612298565b5b92915050565b5f61010082840312156123b9576123b861225e565b5b5f6123c684828501612382565b91505092915050565b5f60049050919050565b5f81905092915050565b5f819050919050565b5f819050919050565b6123fe816123ec565b82525050565b5f61240f83836123f5565b60208301905092915050565b5f602082019050919050565b612430816123cf565b61243a81846123d9565b9250612445826123e3565b805f5b8381101561247557815161245c8782612404565b96506124678361241b565b925050600181019050612448565b505050505050565b5f6080820190506124905f830184612427565b92915050565b5f5f602083850312156124ac576124ab61225e565b5b5f83013567ffffffffffffffff8111156124c9576124c8612262565b5b6124d58582860161229c565b92509250509250929050565b5f819050826020600202820111156124fc576124fb612298565b5b92915050565b5f5f61014083850312156125195761251861225e565b5b5f61252685828601612382565b925050610100612538858286016124e1565b9150509250929050565b5f8190508260206004028201111561255d5761255c612298565b5b92915050565b5f5f60c083850312156125795761257861225e565b5b5f61258685828601612542565b9250506080612597858286016124e1565b9150509250929050565b5f81519050919050565b5f82825260208201905092915050565b8281835e5f83830152505050565b5f601f19601f8301169050919050565b5f6125e3826125a1565b6125ed81856125ab565b93506125fd8185602086016125bb565b612606816125c9565b840191505092915050565b5f6020820190508181035f83015261262981846125d9565b905092915050565b5f5ffd5b5f5ffd5b5f5f8585111561264c5761264b612631565b5b8386111561265d5761265c612635565b5b6001850283019150848603905094509492505050565b5f82905092915050565b5f7fffffffff0000000000000000000000000000000000000000000000000000000082169050919050565b5f82821b905092915050565b5f6126bf8383612673565b826126ca813561267d565b9250600482101561270a576127057fffffffff00000000000000000000000000000000000000000000000000000000836004036008026126a8565b831692505b505092915050565b61271b8161267d565b82525050565b5f6040820190506127345f830185612712565b6127416020830184612712565b9392505050565b7f4e487b71000000000000000000000000000000000000000000000000000000005f52603260045260245ffd5b7f4e487b71000000000000000000000000000000000000000000000000000000005f52604160045260245ffd5b6127ab826125c9565b810181811067ffffffffffffffff821117156127ca576127c9612775565b5b80604052505050565b5f6127dc612255565b90506127e882826127a2565b919050565b5f67ffffffffffffffff82111561280757612806612775565b5b602082029050919050565b61281b816123ec565b8114612825575f5ffd5b50565b5f8135905061283681612812565b92915050565b5f61284e612849846127ed565b6127d3565b9050806020840283018581111561286857612867612298565b5b835b81811015612891578061287d8882612828565b84526020840193505060208101905061286a565b5050509392505050565b5f82601f8301126128af576128ae612290565b5b60086128bc84828561283c565b91505092915050565b5f61010082840312156128db576128da61225e565b5b5f6128e88482850161289b565b91505092915050565b5f60089050919050565b5f81905092915050565b5f819050919050565b5f602082019050919050565b612923816128f1565b61292d81846128fb565b925061293882612905565b805f5b8381101561296857815161294f8782612404565b965061295a8361290e565b92505060018101905061293b565b505050505050565b5f60029050919050565b5f81905092915050565b5f819050919050565b5f602082019050919050565b6129a281612970565b6129ac818461297a565b92506129b782612984565b805f5b838110156129e75781516129ce8782612404565b96506129d98361298d565b9250506001810190506129ba565b505050505050565b5f61014082019050612a035f83018561291a565b612a11610100830184612999565b9392505050565b5f81905092915050565b828183375f83830152505050565b5f612a3b8385612a18565b9350612a48838584612a22565b82840190509392505050565b5f612a60828486612a30565b91508190509392505050565b5f81519050612a7a81612266565b92915050565b5f60208284031215612a9557612a9461225e565b5b5f612aa284828501612a6c565b91505092915050565b7f4e487b71000000000000000000000000000000000000000000000000000000005f52601260045260245ffd5b7f4e487b71000000000000000000000000000000000000000000000000000000005f52601160045260245ffd5b5f612b0f826123ec565b9150612b1a836123ec565b9250828203905081811115612b3257612b31612ad8565b5b9291505056fea26469706673582212207670fa9842e7a3bc19353318ae29f2388e3094e86371a658bd766b76a403eee464736f6c634300081e0033","linkReferences":{}},"methodIdentifiers":{"VERIFIER_HASH()":"2a510436","VERSION()":"ffa1ad74","Verify(uint256[8],uint256[2])":"eddf243c","compressProof(uint256[8])":"44f63692","hashPublicValues(bytes)":"6b61d8e7","verifyCompressedProof(uint256[4],uint256[2])":"f11817b2","verifyProof(bytes32,bytes,bytes)":"41493c60"},"id":20}