{"abi":[{"type":"function","name":"Verify","inputs":[{"name":"proof","type":"uint256[8]","internalType":"uint256[8]"},{"name":"input","type":"uint256[2]","internalType":"uint256[2]"}],"outputs":[],"stateMutability":"view"},{"type":"function","name":"compressProof","inputs":[{"name":"proof","type":"uint256[8]","internalType":"uint256[8]"}],"outputs":[{"name":"compressed","type":"uint256[4]","internalType":"uint256[4]"}],"stateMutability":"view"},{"type":"function","name":"verifyCompressedProof","inputs":[{"name":"compressedProof","type":"uint256[4]","internalType":"uint256[4]"},{"name":"input","type":"uint256[2]","internalType":"uint256[2]"}],"outputs":[],"stateMutability":"view"},{"type":"error","name":"ProofInvalid","inputs":[]},{"type":"error","name":"PublicInputNotInField","inputs":[]}],"bytecode":{"object":"0x6080604052348015600e575f5ffd5b5061218d8061001c5f395ff3fe608060405234801561000f575f5ffd5b506004361061003f575f3560e01c806344f6369214610043578063eddf243c14610073578063f11817b21461008f575b5f5ffd5b61005d60048036038101906100589190611eea565b6100ab565b60405161006a9190611fc4565b60405180910390f35b61008d60048036038101906100889190611ffe565b61020a565b005b6100a960048036038101906100a4919061205f565b6104a4565b005b6100b3611e5a565b6100ec825f600881106100c9576100c861209d565b5b6020020135836001600881106100e2576100e161209d565b5b6020020135610a5f565b815f600481106100ff576100fe61209d565b5b6020020181815250506101748260036008811061011f5761011e61209d565b5b6020020135836002600881106101385761013761209d565b5b6020020135846005600881106101515761015061209d565b5b60200201358560046008811061016a5761016961209d565b5b6020020135610c0d565b826002600481106101885761018761209d565b5b60200201836001600481106101a05761019f61209d565b5b60200201828152508281525050506101e8826006600881106101c5576101c461209d565b5b6020020135836007600881106101de576101dd61209d565b5b6020020135610a5f565b816003600481106101fc576101fb61209d565b5b602002018181525050919050565b5f5f610215836111d9565b915091505f6040516101008682377f1cc7cb8de715675f21f01ecc9b46d236e0865e0cc020024521998269845f74e66101008201527f03ff41f4ba0c37fe2caf27354d28e4b8f83d3b76777a63b327d736bffb0122ed6101208201527f01909cd7827e0278e6b60843a4abc7b111d7f8b2725cd5902a6b20da7a2938fb6101408201527f192bd3274441670227b4f69a44005b8711266e474227c6439ca25ca8e1ec1fc26101608201527f2d4d9aa7e302d9df41749d5507949d05dbea33fbb16c643b22f599a2be6df2e26101808201527f14bedd503c37ceb061d8ec60209fe345ce89830a19230301f076caff004d19266101a08201527f0967032fcbf776d1afc985f88877f182d38480a653f2decaa9794cbc3bf3060c6101c08201527f0e187847ad4c798374d0d6732bf501847dd68bc0e071241e0213bc7fc13db7ab6101e08201527e1752a100a72fdf1e5a5d6ea841cc20ec838bccfcf7bd559e79f1c9c759b6a06102008201527f192a8cc13cd9f762871f21e43451c6ca9eeab2cb2987c4e366a185c25dac2e7f61022082015283610240820152826102608201527f198e9393920d483a7260bfb731fb5d25f1aa493335a9e71297e485b7aef312c26102808201527f1800deef121f1e76426a00665e5c4479674322d4f75edadd46debd5cd992f6ed6102a08201527f275dc4a288d1afb3cbb1ac09187524c7db36395df7be3b99e673b13a075a65ec6102c08201527f1d9befcd05a5323e6da4d435f3b617cdb3af83285c2df711ef39c01571827f9d6102e08201526020816103008360085afa9150805182169150508061049d576040517f7fcdd1f400000000000000000000000000000000000000000000000000000000815260040160405180910390fd5b5050505050565b6104ac611e7c565b5f5f6104ce855f600481106104c4576104c361209d565b5b60200201356113aa565b915091505f5f5f5f610510896002600481106104ed576104ec61209d565b5b60200201358a6001600481106105065761050561209d565b5b60200201356114df565b93509350935093505f5f61053b8b6003600481106105315761053061209d565b5b60200201356113aa565b915091505f5f61054a8c6111d9565b91509150898b5f601881106105625761056161209d565b5b602002018181525050888b6001601881106105805761057f61209d565b5b602002018181525050868b60026018811061059e5761059d61209d565b5b602002018181525050878b6003601881106105bc576105bb61209d565b5b602002018181525050848b6004601881106105da576105d961209d565b5b602002018181525050858b6005601881106105f8576105f761209d565b5b602002018181525050838b6006601881106106165761061561209d565b5b602002018181525050828b6007601881106106345761063361209d565b5b6020020181815250507f1cc7cb8de715675f21f01ecc9b46d236e0865e0cc020024521998269845f74e68b6008601881106106725761067161209d565b5b6020020181815250507f03ff41f4ba0c37fe2caf27354d28e4b8f83d3b76777a63b327d736bffb0122ed8b6009601881106106b0576106af61209d565b5b6020020181815250507f01909cd7827e0278e6b60843a4abc7b111d7f8b2725cd5902a6b20da7a2938fb8b600a601881106106ee576106ed61209d565b5b6020020181815250507f192bd3274441670227b4f69a44005b8711266e474227c6439ca25ca8e1ec1fc28b600b6018811061072c5761072b61209d565b5b6020020181815250507f2d4d9aa7e302d9df41749d5507949d05dbea33fbb16c643b22f599a2be6df2e28b600c6018811061076a5761076961209d565b5b6020020181815250507f14bedd503c37ceb061d8ec60209fe345ce89830a19230301f076caff004d19268b600d601881106107a8576107a761209d565b5b6020020181815250507f0967032fcbf776d1afc985f88877f182d38480a653f2decaa9794cbc3bf3060c8b600e601881106107e6576107e561209d565b5b6020020181815250507f0e187847ad4c798374d0d6732bf501847dd68bc0e071241e0213bc7fc13db7ab8b600f601881106108245761082361209d565b5b6020020181815250507e1752a100a72fdf1e5a5d6ea841cc20ec838bccfcf7bd559e79f1c9c759b6a08b6010601881106108615761086061209d565b5b6020020181815250507f192a8cc13cd9f762871f21e43451c6ca9eeab2cb2987c4e366a185c25dac2e7f8b60116018811061089f5761089e61209d565b5b602002018181525050818b6012601881106108bd576108bc61209d565b5b602002018181525050808b6013601881106108db576108da61209d565b5b6020020181815250507f198e9393920d483a7260bfb731fb5d25f1aa493335a9e71297e485b7aef312c28b6014601881106109195761091861209d565b5b6020020181815250507f1800deef121f1e76426a00665e5c4479674322d4f75edadd46debd5cd992f6ed8b6015601881106109575761095661209d565b5b6020020181815250507f275dc4a288d1afb3cbb1ac09187524c7db36395df7be3b99e673b13a075a65ec8b6016601881106109955761099461209d565b5b6020020181815250507f1d9befcd05a5323e6da4d435f3b617cdb3af83285c2df711ef39c01571827f9d8b6017601881106109d3576109d261209d565b5b6020020181815250505f6109e5611e9f565b6020816103008f60085afa9150811580610a1757506001815f60018110610a0f57610a0e61209d565b5b602002015114155b15610a4e576040517f7fcdd1f400000000000000000000000000000000000000000000000000000000815260040160405180910390fd5b505050505050505050505050505050565b5f7f30644e72e131a029b85045b68181585d97816a916871ca8d3c208c16d87cfd4783101580610aaf57507f30644e72e131a029b85045b68181585d97816a916871ca8d3c208c16d87cfd478210155b15610ae6576040517f7fcdd1f400000000000000000000000000000000000000000000000000000000815260040160405180910390fd5b5f83148015610af457505f82145b15610b01575f9050610c07565b5f610b9f7f30644e72e131a029b85045b68181585d97816a916871ca8d3c208c16d87cfd4780610b3457610b336120ca565b5b60037f30644e72e131a029b85045b68181585d97816a916871ca8d3c208c16d87cfd4780610b6557610b646120ca565b5b877f30644e72e131a029b85045b68181585d97816a916871ca8d3c208c16d87cfd4780610b9557610b946120ca565b5b898a0909086118ba565b9050808303610bb7575f600185901b17915050610c07565b610bc081611956565b8303610bd55760018085901b17915050610c07565b6040517f7fcdd1f400000000000000000000000000000000000000000000000000000000815260040160405180910390fd5b92915050565b5f5f7f30644e72e131a029b85045b68181585d97816a916871ca8d3c208c16d87cfd4786101580610c5e57507f30644e72e131a029b85045b68181585d97816a916871ca8d3c208c16d87cfd478510155b80610c8957507f30644e72e131a029b85045b68181585d97816a916871ca8d3c208c16d87cfd478410155b80610cb457507f30644e72e131a029b85045b68181585d97816a916871ca8d3c208c16d87cfd478310155b15610ceb576040517f7fcdd1f400000000000000000000000000000000000000000000000000000000815260040160405180910390fd5b5f8385878917171703610d03575f5f915091506111d0565b5f5f5f7f30644e72e131a029b85045b68181585d97816a916871ca8d3c208c16d87cfd4780610d3557610d346120ca565b5b60037f30644e72e131a029b85045b68181585d97816a916871ca8d3c208c16d87cfd47610d629190612124565b7f30644e72e131a029b85045b68181585d97816a916871ca8d3c208c16d87cfd4780610d9157610d906120ca565b5b8a8c090990505f7f30644e72e131a029b85045b68181585d97816a916871ca8d3c208c16d87cfd4780610dc757610dc66120ca565b5b8a7f30644e72e131a029b85045b68181585d97816a916871ca8d3c208c16d87cfd4780610df757610df66120ca565b5b8c8d090990505f7f30644e72e131a029b85045b68181585d97816a916871ca8d3c208c16d87cfd4780610e2d57610e2c6120ca565b5b8a7f30644e72e131a029b85045b68181585d97816a916871ca8d3c208c16d87cfd4780610e5d57610e5c6120ca565b5b8c8d090990507f30644e72e131a029b85045b68181585d97816a916871ca8d3c208c16d87cfd4780610e9257610e916120ca565b5b7f30644e72e131a029b85045b68181585d97816a916871ca8d3c208c16d87cfd4780610ec157610ec06120ca565b5b7f30644e72e131a029b85045b68181585d97816a916871ca8d3c208c16d87cfd4780610ef057610eef6120ca565b5b8c860984087f2b149d40ceb8aaae81be18991be06ac3b5b4c5e559dbefa33267e6dc24a138e5089450610fd57f30644e72e131a029b85045b68181585d97816a916871ca8d3c208c16d87cfd4780610f4b57610f4a6120ca565b5b7f30644e72e131a029b85045b68181585d97816a916871ca8d3c208c16d87cfd4780610f7a57610f796120ca565b5b7f30644e72e131a029b85045b68181585d97816a916871ca8d3c208c16d87cfd4780610fa957610fa86120ca565b5b8e870984087f2fcd3ac2a640a154eb23960892a85a68f031ca0c8344b23a577dcf1052b9e77508611956565b93505050505f5f6110787f30644e72e131a029b85045b68181585d97816a916871ca8d3c208c16d87cfd478061100e5761100d6120ca565b5b7f30644e72e131a029b85045b68181585d97816a916871ca8d3c208c16d87cfd478061103d5761103c6120ca565b5b8586097f30644e72e131a029b85045b68181585d97816a916871ca8d3c208c16d87cfd478061106f5761106e6120ca565b5b878809086118ba565b90506111057f30644e72e131a029b85045b68181585d97816a916871ca8d3c208c16d87cfd47806110ac576110ab6120ca565b5b7f183227397098d014dc2822db40c0ac2ecbc0b548b438e5469e10460b6c3e7ea47f30644e72e131a029b85045b68181585d97816a916871ca8d3c208c16d87cfd47806110fc576110fb6120ca565b5b848808096119c1565b15915050611114838383611a2b565b8093508194505050828714801561112a57508186145b15611152575f8161113b575f61113e565b60025b60ff1660028b901b171794508793506111cc565b61115b83611956565b87148015611170575061116d82611956565b86145b1561119957600181611182575f611185565b60025b60ff1660028b901b171794508793506111cb565b6040517f7fcdd1f400000000000000000000000000000000000000000000000000000000815260040160405180910390fd5b5b5050505b94509492505050565b5f5f5f60019050604051604081015f7f26091e1cafb0ad8a4ea0a694cd3743ebf524779233db734c451d28b58aa9758e83527e9ff50a6b8b11c3ca6fdb2690a124f8ce25489fefa65a3e782e7ba70b66690e60208401527f061c3fd0fd3da25d2607c227d090cca750ed36c6ec878755e537c1c48951fb4c82527f0fa17ae9c2033379df7b5c65eff0e107055e9a273e6119a212dd09eb517072196020830152863590508060408301527f30644e72e131a029b85045b68181585d2833e84879b9709143e1f593f000000181108416935060408260608460075afa8416935060408360808560065afa841693507f04eab241388a79817fe0e0e2ead0b2ec4ffdec51a16028dee020634fd129e71c82527f07236256d21c60d02f0bdbf95cff83e03ea9e16fca56b18d5544b0889a65c1f56020830152602087013590508060408301527f30644e72e131a029b85045b68181585d2833e84879b9709143e1f593f000000181108416935060408260608460075afa8416935060408360808560065afa841693508251955060208301519450505050806113a4576040517fa54f8e2700000000000000000000000000000000000000000000000000000000815260040160405180910390fd5b50915091565b5f5f5f83036113be575f5f915091506114da565b5f6001808516149050600184901c92507f30644e72e131a029b85045b68181585d97816a916871ca8d3c208c16d87cfd478310611427576040517f7fcdd1f400000000000000000000000000000000000000000000000000000000815260040160405180910390fd5b6114c47f30644e72e131a029b85045b68181585d97816a916871ca8d3c208c16d87cfd4780611459576114586120ca565b5b60037f30644e72e131a029b85045b68181585d97816a916871ca8d3c208c16d87cfd478061148a576114896120ca565b5b867f30644e72e131a029b85045b68181585d97816a916871ca8d3c208c16d87cfd47806114ba576114b96120ca565b5b88890909086118ba565b915080156114d8576114d582611956565b91505b505b915091565b5f5f5f5f5f861480156114f157505f85145b15611507575f5f5f5f93509350935093506118b1565b5f60018088161490505f6002808916149050600288901c95508694507f30644e72e131a029b85045b68181585d97816a916871ca8d3c208c16d87cfd478610158061157257507f30644e72e131a029b85045b68181585d97816a916871ca8d3c208c16d87cfd478510155b156115a9576040517f7fcdd1f400000000000000000000000000000000000000000000000000000000815260040160405180910390fd5b5f7f30644e72e131a029b85045b68181585d97816a916871ca8d3c208c16d87cfd47806115d9576115d86120ca565b5b60037f30644e72e131a029b85045b68181585d97816a916871ca8d3c208c16d87cfd476116069190612124565b7f30644e72e131a029b85045b68181585d97816a916871ca8d3c208c16d87cfd4780611635576116346120ca565b5b888a090990505f7f30644e72e131a029b85045b68181585d97816a916871ca8d3c208c16d87cfd478061166b5761166a6120ca565b5b887f30644e72e131a029b85045b68181585d97816a916871ca8d3c208c16d87cfd478061169b5761169a6120ca565b5b8a8b090990505f7f30644e72e131a029b85045b68181585d97816a916871ca8d3c208c16d87cfd47806116d1576116d06120ca565b5b887f30644e72e131a029b85045b68181585d97816a916871ca8d3c208c16d87cfd4780611701576117006120ca565b5b8a8b090990507f30644e72e131a029b85045b68181585d97816a916871ca8d3c208c16d87cfd4780611736576117356120ca565b5b7f30644e72e131a029b85045b68181585d97816a916871ca8d3c208c16d87cfd4780611765576117646120ca565b5b7f30644e72e131a029b85045b68181585d97816a916871ca8d3c208c16d87cfd4780611794576117936120ca565b5b8a860984087f2b149d40ceb8aaae81be18991be06ac3b5b4c5e559dbefa33267e6dc24a138e50896506118797f30644e72e131a029b85045b68181585d97816a916871ca8d3c208c16d87cfd47806117ef576117ee6120ca565b5b7f30644e72e131a029b85045b68181585d97816a916871ca8d3c208c16d87cfd478061181e5761181d6120ca565b5b7f30644e72e131a029b85045b68181585d97816a916871ca8d3c208c16d87cfd478061184d5761184c6120ca565b5b8c870984087f2fcd3ac2a640a154eb23960892a85a68f031ca0c8344b23a577dcf1052b9e77508611956565b9550611886878786611a2b565b809750819850505084156118ab5761189d87611956565b96506118a886611956565b95505b50505050505b92959194509250565b5f6118e5827f0c19139cb84c680a6e14116da060561765e05aa45a1c72a34f082305b61f3f52611d26565b9050817f30644e72e131a029b85045b68181585d97816a916871ca8d3c208c16d87cfd4780611917576119166120ca565b5b82830914611951576040517f7fcdd1f400000000000000000000000000000000000000000000000000000000815260040160405180910390fd5b919050565b5f7f30644e72e131a029b85045b68181585d97816a916871ca8d3c208c16d87cfd47808381611988576119876120ca565b5b067f30644e72e131a029b85045b68181585d97816a916871ca8d3c208c16d87cfd4703816119b9576119b86120ca565b5b069050919050565b5f5f6119ed837f0c19139cb84c680a6e14116da060561765e05aa45a1c72a34f082305b61f3f52611d26565b9050827f30644e72e131a029b85045b68181585d97816a916871ca8d3c208c16d87cfd4780611a1f57611a1e6120ca565b5b82830914915050919050565b5f5f5f611aca7f30644e72e131a029b85045b68181585d97816a916871ca8d3c208c16d87cfd4780611a6057611a5f6120ca565b5b7f30644e72e131a029b85045b68181585d97816a916871ca8d3c208c16d87cfd4780611a8f57611a8e6120ca565b5b8788097f30644e72e131a029b85045b68181585d97816a916871ca8d3c208c16d87cfd4780611ac157611ac06120ca565b5b898a09086118ba565b90508315611ade57611adb81611956565b90505b611b697f30644e72e131a029b85045b68181585d97816a916871ca8d3c208c16d87cfd4780611b1057611b0f6120ca565b5b7f183227397098d014dc2822db40c0ac2ecbc0b548b438e5469e10460b6c3e7ea47f30644e72e131a029b85045b68181585d97816a916871ca8d3c208c16d87cfd4780611b6057611b5f6120ca565b5b848a08096118ba565b92507f30644e72e131a029b85045b68181585d97816a916871ca8d3c208c16d87cfd4780611b9a57611b996120ca565b5b611bd57f30644e72e131a029b85045b68181585d97816a916871ca8d3c208c16d87cfd4780611bcc57611bcb6120ca565b5b60028609611dbd565b860991507f30644e72e131a029b85045b68181585d97816a916871ca8d3c208c16d87cfd4780611c0857611c076120ca565b5b611c427f30644e72e131a029b85045b68181585d97816a916871ca8d3c208c16d87cfd4780611c3a57611c396120ca565b5b848509611956565b7f30644e72e131a029b85045b68181585d97816a916871ca8d3c208c16d87cfd4780611c7157611c706120ca565b5b8586090886141580611ce657507f30644e72e131a029b85045b68181585d97816a916871ca8d3c208c16d87cfd4780611cad57611cac6120ca565b5b7f30644e72e131a029b85045b68181585d97816a916871ca8d3c208c16d87cfd4780611cdc57611cdb6120ca565b5b8385096002098514155b15611d1d576040517f7fcdd1f400000000000000000000000000000000000000000000000000000000815260040160405180910390fd5b50935093915050565b5f5f60405160208152602080820152602060408201528460608201528360808201527f30644e72e131a029b85045b68181585d97816a916871ca8d3c208c16d87cfd4760a082015260208160c08360055afa9150805192505080611db6576040517f7fcdd1f400000000000000000000000000000000000000000000000000000000815260040160405180910390fd5b5092915050565b5f611de8827f30644e72e131a029b85045b68181585d97816a916871ca8d3c208c16d87cfd45611d26565b905060017f30644e72e131a029b85045b68181585d97816a916871ca8d3c208c16d87cfd4780611e1b57611e1a6120ca565b5b82840914611e55576040517f7fcdd1f400000000000000000000000000000000000000000000000000000000815260040160405180910390fd5b919050565b6040518060800160405280600490602082028036833780820191505090505090565b604051806103000160405280601890602082028036833780820191505090505090565b6040518060200160405280600190602082028036833780820191505090505090565b5f5ffd5b5f5ffd5b5f81905082602060080282011115611ee457611ee3611ec5565b5b92915050565b5f6101008284031215611f0057611eff611ec1565b5b5f611f0d84828501611ec9565b91505092915050565b5f60049050919050565b5f81905092915050565b5f819050919050565b5f819050919050565b611f4581611f33565b82525050565b5f611f568383611f3c565b60208301905092915050565b5f602082019050919050565b611f7781611f16565b611f818184611f20565b9250611f8c82611f2a565b805f5b83811015611fbc578151611fa38782611f4b565b9650611fae83611f62565b925050600181019050611f8f565b505050505050565b5f608082019050611fd75f830184611f6e565b92915050565b5f81905082602060020282011115611ff857611ff7611ec5565b5b92915050565b5f5f610140838503121561201557612014611ec1565b5b5f61202285828601611ec9565b92505061010061203485828601611fdd565b9150509250929050565b5f8190508260206004028201111561205957612058611ec5565b5b92915050565b5f5f60c0838503121561207557612074611ec1565b5b5f6120828582860161203e565b925050608061209385828601611fdd565b9150509250929050565b7f4e487b71000000000000000000000000000000000000000000000000000000005f52603260045260245ffd5b7f4e487b71000000000000000000000000000000000000000000000000000000005f52601260045260245ffd5b7f4e487b71000000000000000000000000000000000000000000000000000000005f52601160045260245ffd5b5f61212e82611f33565b915061213983611f33565b9250828203905081811115612151576121506120f7565b5b9291505056fea2646970667358221220ca33e60f81ff5d4c47323342536d34321634a5dacbac34f9a2ba6194b6d366b264736f6c634300081e0033","linkReferences":{}},"methodIdentifiers":{"Verify(uint256[8],uint256[2])":"eddf243c","compressProof(uint256[8])":"44f63692","verifyCompressedProof(uint256[4],uint256[2])":"f11817b2"},"id":18}