{"abi":[{"type":"constructor","inputs":[{"name":"_verifier","type":"address","internalType":"address"},{"name":"_gameProgramVKey","type":"bytes32","internalType":"bytes32"}],"stateMutability":"nonpayable"},{"type":"function","name":"gameProgramVKey","inputs":[],"outputs":[{"name":"","type":"bytes32","internalType":"bytes32"}],"stateMutability":"view"},{"type":"function","name":"getPlayerScore","inputs":[{"name":"_player","type":"address","internalType":"address"}],"outputs":[{"name":"","type":"tuple","internalType":"struct Brickles.Score","components":[{"name":"player","type":"address","internalType":"address"},{"name":"timestamp","type":"uint256","internalType":"uint256"},{"name":"blocksDestroyed","type":"uint256","internalType":"uint256"},{"name":"timeElapsed","type":"uint256","internalType":"uint256"}]}],"stateMutability":"view"},{"type":"function","name":"getTopScores","inputs":[],"outputs":[{"name":"","type":"tuple[]","internalType":"struct Brickles.Score[]","components":[{"name":"player","type":"address","internalType":"address"},{"name":"timestamp","type":"uint256","internalType":"uint256"},{"name":"blocksDestroyed","type":"uint256","internalType":"uint256"},{"name":"timeElapsed","type":"uint256","internalType":"uint256"}]}],"stateMutability":"view"},{"type":"function","name":"playerBestScores","inputs":[{"name":"","type":"address","internalType":"address"}],"outputs":[{"name":"player","type":"address","internalType":"address"},{"name":"timestamp","type":"uint256","internalType":"uint256"},{"name":"blocksDestroyed","type":"uint256","internalType":"uint256"},{"name":"timeElapsed","type":"uint256","internalType":"uint256"}],"stateMutability":"view"},{"type":"function","name":"topScores","inputs":[{"name":"","type":"uint256","internalType":"uint256"}],"outputs":[{"name":"player","type":"address","internalType":"address"},{"name":"timestamp","type":"uint256","internalType":"uint256"},{"name":"blocksDestroyed","type":"uint256","internalType":"uint256"},{"name":"timeElapsed","type":"uint256","internalType":"uint256"}],"stateMutability":"view"},{"type":"function","name":"verifier","inputs":[],"outputs":[{"name":"","type":"address","internalType":"address"}],"stateMutability":"view"},{"type":"function","name":"verifyProof","inputs":[{"name":"_publicValues","type":"bytes","internalType":"bytes"},{"name":"_proofBytes","type":"bytes","internalType":"bytes"}],"outputs":[],"stateMutability":"nonpayable"},{"type":"event","name":"NewHighScore","inputs":[{"name":"player","type":"address","indexed":true,"internalType":"address"},{"name":"blocksDestroyed","type":"uint256","indexed":false,"internalType":"uint256"},{"name":"timeElapsed","type":"uint256","indexed":false,"internalType":"uint256"}],"anonymous":false},{"type":"event","name":"NewScore","inputs":[{"name":"player","type":"address","indexed":true,"internalType":"address"},{"name":"blocksDestroyed","type":"uint256","indexed":false,"internalType":"uint256"},{"name":"timeElapsed","type":"uint256","indexed":false,"internalType":"uint256"}],"anonymous":false}],"bytecode":{"object":"0x608060405234801561000f575f5ffd5b506040516117c43803806117c48339818101604052810190610031919061010f565b815f5f6101000a81548173ffffffffffffffffffffffffffffffffffffffff021916908373ffffffffffffffffffffffffffffffffffffffff16021790555080600181905550505061014d565b5f5ffd5b5f73ffffffffffffffffffffffffffffffffffffffff82169050919050565b5f6100ab82610082565b9050919050565b6100bb816100a1565b81146100c5575f5ffd5b50565b5f815190506100d6816100b2565b92915050565b5f819050919050565b6100ee816100dc565b81146100f8575f5ffd5b50565b5f81519050610109816100e5565b92915050565b5f5f604083850312156101255761012461007e565b5b5f610132858286016100c8565b9250506020610143858286016100fb565b9150509250929050565b61166a8061015a5f395ff3fe608060405234801561000f575f5ffd5b506004361061007b575f3560e01c8063690cfef711610059578063690cfef714610103578063b8e72af614610121578063e085c5391461013d578063ee5c4e5d1461016d5761007b565b80630f42afed1461007f5780632b7ac3f3146100b25780635112711a146100d0575b5f5ffd5b61009960048036038101906100949190610d27565b61018b565b6040516100a99493929190610d79565b60405180910390f35b6100ba6101d6565b6040516100c79190610dbc565b60405180910390f35b6100ea60048036038101906100e59190610dff565b6101fa565b6040516100fa9493929190610d79565b60405180910390f35b61010b610254565b6040516101189190610e42565b60405180910390f35b61013b60048036038101906101369190610ebc565b61025a565b005b61015760048036038101906101529190610d27565b610523565b6040516101649190610fab565b60405180910390f35b6101756105ec565b60405161018291906110bf565b60405180910390f35b6004602052805f5260405f205f91509050805f015f9054906101000a900473ffffffffffffffffffffffffffffffffffffffff16908060010154908060020154908060030154905084565b5f5f9054906101000a900473ffffffffffffffffffffffffffffffffffffffff1681565b60038181548110610209575f80fd5b905f5260205f2090600402015f91509050805f015f9054906101000a900473ffffffffffffffffffffffffffffffffffffffff16908060010154908060020154908060030154905084565b60015481565b5f848490501161029f576040517f08c379a000000000000000000000000000000000000000000000000000000000815260040161029690611139565b60405180910390fd5b5f82829050116102e4576040517f08c379a00000000000000000000000000000000000000000000000000000000081526004016102db906111a1565b60405180910390fd5b5f828286866040516020016102fc94939291906111fb565b60405160208183030381529060405290505f5f73ffffffffffffffffffffffffffffffffffffffff16600283604051610335919061126a565b90815260200160405180910390205f9054906101000a900473ffffffffffffffffffffffffffffffffffffffff1673ffffffffffffffffffffffffffffffffffffffff16149050806103bc576040517f08c379a00000000000000000000000000000000000000000000000000000000081526004016103b3906112ca565b60405180910390fd5b5f5f9054906101000a900473ffffffffffffffffffffffffffffffffffffffff1673ffffffffffffffffffffffffffffffffffffffff166341493c60600154888888886040518663ffffffff1660e01b815260040161041f959493929190611334565b5f6040518083038186803b158015610435575f5ffd5b505afa158015610447573d5f5f3e3d5ffd5b505050505f868681019061045b91906114c6565b905080604001516104a1576040517f08c379a00000000000000000000000000000000000000000000000000000000081526004016104989061153b565b60405180910390fd5b6104be815f015163ffffffff16826020015163ffffffff166106ba565b336002846040516104cf919061126a565b90815260200160405180910390205f6101000a81548173ffffffffffffffffffffffffffffffffffffffff021916908373ffffffffffffffffffffffffffffffffffffffff16021790555050505050505050565b61052b610c82565b60045f8373ffffffffffffffffffffffffffffffffffffffff1673ffffffffffffffffffffffffffffffffffffffff1681526020019081526020015f206040518060800160405290815f82015f9054906101000a900473ffffffffffffffffffffffffffffffffffffffff1673ffffffffffffffffffffffffffffffffffffffff1673ffffffffffffffffffffffffffffffffffffffff16815260200160018201548152602001600282015481526020016003820154815250509050919050565b60606003805480602002602001604051908101604052809291908181526020015f905b828210156106b1578382905f5260205f2090600402016040518060800160405290815f82015f9054906101000a900473ffffffffffffffffffffffffffffffffffffffff1673ffffffffffffffffffffffffffffffffffffffff1673ffffffffffffffffffffffffffffffffffffffff16815260200160018201548152602001600282015481526020016003820154815250508152602001906001019061060f565b50505050905090565b5f60405180608001604052803373ffffffffffffffffffffffffffffffffffffffff1681526020014281526020018481526020018381525090503373ffffffffffffffffffffffffffffffffffffffff167f76b1b3fce1c784f262afca65279ed7f2cf24f623ca6dc406d4fa613e7b66ece0848460405161073c929190611559565b60405180910390a261080760045f3373ffffffffffffffffffffffffffffffffffffffff1673ffffffffffffffffffffffffffffffffffffffff1681526020019081526020015f206040518060800160405290815f82015f9054906101000a900473ffffffffffffffffffffffffffffffffffffffff1673ffffffffffffffffffffffffffffffffffffffff1673ffffffffffffffffffffffffffffffffffffffff16815260200160018201548152602001600282015481526020016003820154815250508261090d565b6108ff578060045f3373ffffffffffffffffffffffffffffffffffffffff1673ffffffffffffffffffffffffffffffffffffffff1681526020019081526020015f205f820151815f015f6101000a81548173ffffffffffffffffffffffffffffffffffffffff021916908373ffffffffffffffffffffffffffffffffffffffff1602179055506020820151816001015560408201518160020155606082015181600301559050503373ffffffffffffffffffffffffffffffffffffffff167fec51f1f19b3cb8ab4176d8a463cb3b7a4bb866380c5ee1c51da9577ad94db00a84846040516108f6929190611559565b60405180910390a25b61090881610975565b505050565b5f5f836040015103610921575f905061096f565b5f826040015103610935576001905061096f565b81604001518360400151111561094e576001905061096f565b8160400151836040015114801561096c575081606001518360600151105b90505b92915050565b5f60038054905090505f5f90505b600380549050811015610a4f57610a36600382815481106109a7576109a6611580565b5b905f5260205f2090600402016040518060800160405290815f82015f9054906101000a900473ffffffffffffffffffffffffffffffffffffffff1673ffffffffffffffffffffffffffffffffffffffff1673ffffffffffffffffffffffffffffffffffffffff16815260200160018201548152602001600282015481526020016003820154815250508461090d565b610a4257809150610a4f565b8080600101915050610983565b50600a811015610c7e57600a6003805490501015610af557600382908060018154018082558091505060019003905f5260205f2090600402015f909190919091505f820151815f015f6101000a81548173ffffffffffffffffffffffffffffffffffffffff021916908373ffffffffffffffffffffffffffffffffffffffff16021790555060208201518160010155604082015181600201556060820151816003015550505b5f6001600380549050610b0891906115da565b90505b81811115610bf6576003600182610b2291906115da565b81548110610b3357610b32611580565b5b905f5260205f20906004020160038281548110610b5357610b52611580565b5b905f5260205f2090600402015f82015f9054906101000a900473ffffffffffffffffffffffffffffffffffffffff16815f015f6101000a81548173ffffffffffffffffffffffffffffffffffffffff021916908373ffffffffffffffffffffffffffffffffffffffff1602179055506001820154816001015560028201548160020155600382015481600301559050508080610bee9061160d565b915050610b0b565b508160038281548110610c0c57610c0b611580565b5b905f5260205f2090600402015f820151815f015f6101000a81548173ffffffffffffffffffffffffffffffffffffffff021916908373ffffffffffffffffffffffffffffffffffffffff1602179055506020820151816001015560408201518160020155606082015181600301559050505b5050565b60405180608001604052805f73ffffffffffffffffffffffffffffffffffffffff1681526020015f81526020015f81526020015f81525090565b5f604051905090565b5f5ffd5b5f5ffd5b5f73ffffffffffffffffffffffffffffffffffffffff82169050919050565b5f610cf682610ccd565b9050919050565b610d0681610cec565b8114610d10575f5ffd5b50565b5f81359050610d2181610cfd565b92915050565b5f60208284031215610d3c57610d3b610cc5565b5b5f610d4984828501610d13565b91505092915050565b610d5b81610cec565b82525050565b5f819050919050565b610d7381610d61565b82525050565b5f608082019050610d8c5f830187610d52565b610d996020830186610d6a565b610da66040830185610d6a565b610db36060830184610d6a565b95945050505050565b5f602082019050610dcf5f830184610d52565b92915050565b610dde81610d61565b8114610de8575f5ffd5b50565b5f81359050610df981610dd5565b92915050565b5f60208284031215610e1457610e13610cc5565b5b5f610e2184828501610deb565b91505092915050565b5f819050919050565b610e3c81610e2a565b82525050565b5f602082019050610e555f830184610e33565b92915050565b5f5ffd5b5f5ffd5b5f5ffd5b5f5f83601f840112610e7c57610e7b610e5b565b5b8235905067ffffffffffffffff811115610e9957610e98610e5f565b5b602083019150836001820283011115610eb557610eb4610e63565b5b9250929050565b5f5f5f5f60408587031215610ed457610ed3610cc5565b5b5f85013567ffffffffffffffff811115610ef157610ef0610cc9565b5b610efd87828801610e67565b9450945050602085013567ffffffffffffffff811115610f2057610f1f610cc9565b5b610f2c87828801610e67565b925092505092959194509250565b610f4381610cec565b82525050565b610f5281610d61565b82525050565b608082015f820151610f6c5f850182610f3a565b506020820151610f7f6020850182610f49565b506040820151610f926040850182610f49565b506060820151610fa56060850182610f49565b50505050565b5f608082019050610fbe5f830184610f58565b92915050565b5f81519050919050565b5f82825260208201905092915050565b5f819050602082019050919050565b608082015f8201516110015f850182610f3a565b5060208201516110146020850182610f49565b5060408201516110276040850182610f49565b50606082015161103a6060850182610f49565b50505050565b5f61104b8383610fed565b60808301905092915050565b5f602082019050919050565b5f61106d82610fc4565b6110778185610fce565b935061108283610fde565b805f5b838110156110b25781516110998882611040565b97506110a483611057565b925050600181019050611085565b5085935050505092915050565b5f6020820190508181035f8301526110d78184611063565b905092915050565b5f82825260208201905092915050565b7f5075626c69632076616c756573206d7573742062652070726f766964656400005f82015250565b5f611123601e836110df565b915061112e826110ef565b602082019050919050565b5f6020820190508181035f83015261115081611117565b9050919050565b7f50726f6f66206d7573742062652070726f7669646564000000000000000000005f82015250565b5f61118b6016836110df565b915061119682611157565b602082019050919050565b5f6020820190508181035f8301526111b88161117f565b9050919050565b5f81905092915050565b828183375f83830152505050565b5f6111e283856111bf565b93506111ef8385846111c9565b82840190509392505050565b5f6112078286886111d7565b91506112148284866111d7565b915081905095945050505050565b5f81519050919050565b8281835e5f83830152505050565b5f61124482611222565b61124e81856111bf565b935061125e81856020860161122c565b80840191505092915050565b5f611275828461123a565b915081905092915050565b7f50726f6f6620616c7265616479207573656400000000000000000000000000005f82015250565b5f6112b46012836110df565b91506112bf82611280565b602082019050919050565b5f6020820190508181035f8301526112e1816112a8565b9050919050565b5f82825260208201905092915050565b5f601f19601f8301169050919050565b5f61131383856112e8565b93506113208385846111c9565b611329836112f8565b840190509392505050565b5f6060820190506113475f830188610e33565b818103602083015261135a818688611308565b9050818103604083015261136f818486611308565b90509695505050505050565b5f5ffd5b7f4e487b71000000000000000000000000000000000000000000000000000000005f52604160045260245ffd5b6113b5826112f8565b810181811067ffffffffffffffff821117156113d4576113d361137f565b5b80604052505050565b5f6113e6610cbc565b90506113f282826113ac565b919050565b5f63ffffffff82169050919050565b61140f816113f7565b8114611419575f5ffd5b50565b5f8135905061142a81611406565b92915050565b5f8115159050919050565b61144481611430565b811461144e575f5ffd5b50565b5f8135905061145f8161143b565b92915050565b5f6060828403121561147a5761147961137b565b5b61148460606113dd565b90505f6114938482850161141c565b5f8301525060206114a68482850161141c565b60208301525060406114ba84828501611451565b60408301525092915050565b5f606082840312156114db576114da610cc5565b5b5f6114e884828501611465565b91505092915050565b7f496e7075747320496e76616c69640000000000000000000000000000000000005f82015250565b5f611525600e836110df565b9150611530826114f1565b602082019050919050565b5f6020820190508181035f83015261155281611519565b9050919050565b5f60408201905061156c5f830185610d6a565b6115796020830184610d6a565b9392505050565b7f4e487b71000000000000000000000000000000000000000000000000000000005f52603260045260245ffd5b7f4e487b71000000000000000000000000000000000000000000000000000000005f52601160045260245ffd5b5f6115e482610d61565b91506115ef83610d61565b9250828203905081811115611607576116066115ad565b5b92915050565b5f61161782610d61565b91505f8203611629576116286115ad565b5b60018203905091905056fea264697066735822122065a4b14b08e65da4514f654468b715c4ca2dc4d24eb66a12456b7b7df1edaa5c64736f6c634300081e0033","linkReferences":{}},"methodIdentifiers":{"gameProgramVKey()":"690cfef7","getPlayerScore(address)":"e085c539","getTopScores()":"ee5c4e5d","playerBestScores(address)":"0f42afed","topScores(uint256)":"5112711a","verifier()":"2b7ac3f3","verifyProof(bytes,bytes)":"b8e72af6"},"id":16}